:020000020000FC
:020000000000FE
:100000000C94AE0B0C943E000C943E000C943E00FD
:100010000C943E000C943E000C943E000C943E0068
:100020000C943E000C943E000C943E000C943E0058
:100030000C943E000C943E000C943E000C943E0048
:100040000C943E000C943E000C943E000C943E0038
:100050000C943E000C943E000C943E000C943E0028
:100060000C943E000C943E000C943E000C943E0018
:100070000C943E000C943E000C943E001895000039
:100080000000000010E3841001006DB48000000047
:1000900000A7CA29F28020E40C09C10065908421E0
:1000A00034C021450855234030C2000000001082B2
:1000B00008208100204104104200189246000000F0
:1000C00000411F10400000000000C30800001F0096
:1000D000000000000000C30000108421000039145B
:1000E000D565138010C1041043803910462107C024
:1000F00039104E0513800862927C20807D041E0515
:10010000138018841E4513807C10842082003914CB
:100110004E45138039144F04230000030C00C30024
:1001200000030C00C3080007CE1000000007C00148
:10013000F00000010E7C000039104610010000E7BD
:10014000DF7CE0003914517D144079145E4517803E
:100150003914104113807914514517807D041E41D4
:1001600007C07D041E4104003914174513C045140F
:100170005F4514403841041043800410414513800A
:100180004525185124404104104107C045B551454B
:100190001440459553451440391451451380791442
:1001A0005E41040039145155234079145E491440CE
:1001B00039140E0513807C4104104100451451454B
:1001C000138045145144A1004515555552804512E0
:1001D0008429144045144A104100782108410780C1
:1001E0003882082083800102040810003820820829
:1001F000238010A44000000000000000003F30C138
:10020000000000000003813D13C0410791451780A5
:100210000003914113800413D14513C00003917969
:10022000038018821E2082000003D144F04E410753
:100230001249248010010410418008018208248C96
:10024000410494614480104104104180000695559A
:1002500014400007124924800003914513800007D1
:10026000914517900003D14513C1000589208700EF
:1002700000039038138000878820A1000004924971
:10028000628000045144A10000045155F280000432
:100290009231248000049248E118000782310780DF
:1002A00018821820818010410010410030208308FE
:1002B000230029400000000010E6D145F0000000B6
:1002C000000000000000000000000000000000002E
:1002D0000000000000000600600F00F00F00F00FAB
:1002E00000600600600000000600600000000000E2
:1002F000001981981981980000000000000000009A
:100300000000000000000000660660663FF0CC0CB4
:10031000C1981987FC330330330000000000060049
:10032000601F83FC3603603F81FC06C06C3FC1F850
:1003300006006000000000000000138338738E0187
:10034000C0380700E01C038E70E60E0000000000BD
:10035000700D81981981B00E01E03E033633C31849
:100360003BC1E60000000E00E00E00600600C00089
:1003700000000000000000000000000000000380FA
:10038000600E00C01C01C01C01C01C01C00C00E0BC
:100390000600380000001C006007003003803803AE
:1003A00080380380380300700601C00000000000A0
:1003B0000000036C36C1F80F03FC0F01F836C36C64
:1003C00000000000000000000000000006006006C1
:1003D00003FC3FC060060060000000000000000059
:1003E000000000000000000000000000000000E02D
:1003F0000E00E00600C00000000000000000000049
:1004000003FC3FC0000000000000000000000000EE
:10041000000000000000000000000000000000E0FC
:100420000E00E000000000000100300700E01C03A7
:1004300080700E01C03807006000000000000F83CC
:10044000FE30660760F61B6336636C3783703306D5
:100450003FE0F80000000300701F01F003003003CC
:1004600000300300300300301FE1FE0000001FC316
:10047000FE70760360700E01C0380700E01C038038
:100480007FF7FF0000001FC3FE7076030030070FE8
:10049000E0FC0060036037073FE1FC00000001C0A2
:1004A0003C07C0EC1CC38C70C60C7FF7FF00C00C6F
:1004B00000C00C0000007FF7FF6006006007FC3FF3
:1004C000E0070030036037073FE1FC00000003C095
:1004D0007C0E01C03803007FC7FE707603603707CB
:1004E0003FE1FC0000007FF7FF00600600C00C0148
:1004F00080180300300600600C00C00000000F816F
:10050000FC38E30630638E1FC3FE70760360370746
:100510003FE1FC0000001FC3FE7076036037073F19
:10052000F1FF00600E01C0381F01E0000000000074
:10053000000000000E00E00E00000000000E00E0D1
:100540000E00000000000000000000000E00E00EA1
:1005500000000000000E00E00E00600600C000C0B9
:100560001C0380700E01C03803801C00E0070038B7
:1005700001C00C0000000000000000000003FE3F6E
:10058000E0000003FE3FE000000000000000300338
:10059000801C00E007003801C01C0380700E01C001
:1005A0003803000000001F83FC70E60660E01C03B7
:1005B00080700600600600000600600000001FC397
:1005C000FE30667B6FB6DB6DB6DB6DB6FE67C700CF
:1005D0003FC0FC0000000600600F00F00F019819FA
:1005E000819830C3FC3FC6066066060000007F07A6
:1005F000F861C60C60C61C7F87FC60E60660660E6C
:100600007FC7F80000000F81FC38E3066006006039
:10061000060060060030638E1FC0F80000007F07F0
:10062000F861C60C60660660660660660660C61CF9
:100630007F87F00000007FE7FE6006006006007F15
:1006400087F86006006006007FE7FE0000007FE795
:10065000FE6006006006007F87F860060060060006
:100660006006000000000FC1FE38630060060063F2
:10067000E63E6066063063861FE0FE0000006066AE
:10068000066066066066067FE7FE606606606606D0
:100690006066060000001F81F80600600600600624
:1006A00000600600600600601F81F8000000006026
:1006B0000600600600600600600600660660670CC3
:1006C0003FC1F800000060660E61C6386706E07C36
:1006D00007C06E067063861C60E6060000006006B8
:1006E000006006006006006006006006006006000C
:1006F0007FE7FE00000060670E70E79E79E6F66F08
:1007000066666666066066066066060000006067EC
:10071000067067866C66C666666663663661E60E58
:1007200060E6060000000F01F839C30C6066066041
:10073000660660660630C39C1F80F00000007F875D
:10074000FC60E60660660660E7FC7F8600600600E7
:100750006006000000000F01F839C30C60660660F7
:10076000660660663633C39C1FE0F60000007F8794
:10077000FC60E60660660660E7FC7F867063861CA8
:1007800060E6060000001F83FC70E6066007003F7D
:1007900081FC00E00660670E3FC1F80000003FC327
:1007A000FC0600600600600600600600600600604F
:1007B000060060000000606606606606606606600F
:1007C000660660660660630C3FC1F8000000606664
:1007D0000660630C30C30C1981981980F00F00F08B
:1007E00006006000000060660660660660660660DF
:1007F00066666666F679E70E70E6060000006066DB
:100800000630C30C1980F00600600F019830C30C4D
:1008100060660600000060660630C30C1981980F00
:1008200000F00600600600600600600000007FE740
:10083000FE00C00C0180300600600C018030030017
:100840007FE7FE0000001F81F81801801801801862
:1008500001801801801801801F81F8000000000449
:10086000006007003801C00E007003801C00E00724
:100870000030000000001F81F8018018018018017D
:1008800080180180180180181F81F8000000020004
:10089000700F81DC38E707603000000000000000C6
:1008A0000000000000000000000000000000000048
:1008B00000000000000000000000007FF7FF0000C3
:1008C00070070070060060030000000000000000D8
:1008D0000000000000000000000000000001FC3FDC
:1008E000E0061FE3FE6066067FE3FE000000600690
:1008F000006006006006F87FC70E60660660660E40
:100900007FC7F80000000000000000000001F83F71
:10091000C7066006006007063FC1F80000000060DF
:10092000060060060061F63FE71E60660660670627
:100930003FE1FE0000000000000000000001F83F61
:10094000C7067FE7FC6007003FC1F8000000078092
:10095000F81C01801801807F07F0180180180180C1
:100960001801800000000000000000000001FE3FB0
:10097000E70660670E3FE1F600600E3FC3F86006D1
:10098000006006006006F07F871C60C60C60C60C25
:1009900060C60C0000000000000600600000E00ED1
:1009A00000600600600600601F81F8000000000083
:1009B0000001801800003803801801801801801899
:1009C0000181981F80F0300300300300300318339A
:1009D00083703E03E037033831C30C0000000E0083
:1009E000E006006006006006006006006006006029
:1009F0001F81F80000000000000000000005987F43
:100A0000C7FE66666666666666666600000000008B
:100A1000000000000003F83FC30E30630630630699
:100A20003063060000000000000000000001F83FF5
:100A3000C70E60660660670E3FC1F8000000000048
:100A4000000000000007F87FC60E60660670E7FC35
:100A50006F86006006000000000000000001FE3FFD
:100A6000E70660660670E3FE1F6006006006000091
:100A70000000000000037C3FE386300300300300E9
:100A80003003000000000000000000000003F07FC1
:100A900086007F03F80180187F83F00000000001CA
:100AA000801801801807F07F0180180180180180EC
:100AB0001F80F80000000000000000000006066033
:100AC000660660660660670E3FE1F6000000000003
:100AD0000000000000060660630C30C1981980F029
:100AE0000F006000000000000000000000066666C5
:100AF00066666666666F63FC39C108000000000028
:100B00000000000000060C71C3B81F00E01F03B80E
:100B100071C60C00000000000000000000030C3053
:100B2000C1981980F00F00600600C00C0180000021
:100B3000000000000007FC7F80300600C0180300A2
:100B40007FC7FC00000003C07C0E00C00C00C01C6E
:100B500003801C00C00C00C00E007C03C000060017
:100B60006006006006006006006006006006006027
:100B70000600600000003C03E00700300300300383
:100B8000801C0380300300300703E03C00000000BD
:100B9000001C636C63800000000000000000000087
:100BA0000000000000000000000000000600F01936
:100BB000830C6066067FE7FE00000000000008006E
:100BC0001C003E007F00FF800000000000000000CD
:100BD0000000000000000000000000000000FF8096
:100BE0007F003E001C000800000000000000000024
:100BF00000000000000000000000000000004000B5
:100C0000F80040001C007F007F00FF80FF80FF8015
:100C10007F007F001C0000000000000000000100B9
:100C20000F8001001C007F007F00FF80FF80FF809D
:100C30007F007F001C00000000000000000000009A
:100C4000003800443044FFFEFC7EF83EF01EF01EEB
:100C5000F01EF83EFC7EFFFE0000000000000100D8
:100C6000038006C00D601AB035586AACFD7E0AA03C
:100C70000D600AA00D600AA00D600FE000000100E9
:100C8000030007000D001BFE35566AAAD5566AAA56
:100C900035561BFE0D0007000300010000000FE0A9
:100CA0000D600AA00D600AA00D600AA0FD7E6AAC6E
:100CB00035581AB00D6006C00380010000000080A6
:100CC00000C000E000B07FD86AAC55566AAB5556FC
:100CD0006AAC7FD800B000E000C00080000026228F
:100CE0007000612470006121600015711000746152
:100CF000600024652000713220002525200002E3D9
:100D000001B90AE004B90CEF07B902EF0AB90FEF15
:100D100000937E0005EF05B903E008B90DE00BB9BB
:100D200000E00093800002E00093810000E0009367
:100D3000820005E10093690003E00DBB0AE0009327
:100D4000680001E00093730005E000936C000091DF
:100D5000B9000C7F0093B90001E10093B8005D9ADF
:100D60005C9A5E982B9A299AA4EFB1E00E94C00683
:100D70002B9829985E9AA4E6B0E00E94C0060895D8
:100D8000CAE003D01197E1F708950AEF0A95000031
:100D90000000000000000000C9F7CA95B1F70895EF
:100DA000AC17BD070895AF93CF9303B1009502959B
:100DB0000F70A1F0C4E60E94C50603B1009502952C
:100DC000A0918F07AA2349F00795AA1F0795AA1F8C
:100DD0000795AA1F0795AA1F0A2F0F70CF91AF91F1
:100DE0000895E1DF0030E9F70895FBDFDCDF003034
:100DF000E9F30895FADF0130E9F7F3DF0895F091A0
:100E0000010835D03196A02F32D03196B02F0895F9
:100E1000F09101080A2F35D031960B2F32D0319640
:100E20000895F091010823D03196A02F0895F091F4
:100E300001080A2F26D031960895F091010817D0A5
:100E40003196D02F14D03196A02F11D03196B02FDB
:100E50000895F09101080D2F14D031960A2F11D06A
:100E600031960B2F0ED031960895F0910108F99923
:100E7000FECFE1BDF2BD01E00FBB00B50895F091DA
:100E80000108F894F999FECFE1BDF2BD00BD04E080
:100E90000FBB02E00FBB7894089500910108002376
:100EA00009F008950E94690A0EE200933F07E2E309
:100EB000FFE00E94500800E000933F070AE1009322
:100EC0004007E6E3FFE00E94EE08BB27A091A107E0
:100ED000DD270E94070800E000933F0709E3009325
:100EE0004007E6E4FFE00E94EE080E94180A08307E
:100EF00011F434D00895043041F40091A1070E326A
:100F0000BCF403950093A107CDCF023041F40091CA
:100F1000A10709316CF00A950093A107C3CF0130F6
:100F200039F4A091A107E0E7F0E00E9419070895C5
:100F3000B9CF4C4344004C434420436F6E747261FC
:100F400073743A2000004241434B2020555020202A
:100F500020444F574E20205341564500E0E7F0E033
:100F60000E9437070093A107089504E20093A107A8
:100F7000E0E7F0E00E94410708951F9310914207B7
:100F800000914007009342070E94680900914007C2
:100F9000039500934007011798F31F910895059159
:100FA00000933F0705910093400705910093410787
:100FB00004910093420700E000934307DEDF0895A9
:100FC0001F932F933F934F9310913F07209140071A
:100FD0003091410740914207209342070E946809DF
:100FE00030933F07409340070E94680910934107E0
:100FF000409342070E94680910933F0720934007DF
:101000000E9468094F913F912F911F910895AF93CE
:10101000BF93CF93DF93EF93FF931F932F933F9350
:101020000A2F0B2B21F400E30E94F40822C01127A1
:10103000BB2342F4A095B09501E0A00F0027B01F9C
:101040000DE2D2D0E6E8F0E125E03FEFC591D59181
:10105000AC1BBD0B3395E0F7AC0FBD1F332319F468
:1010600011232AF401C01FEF032F005DBDD02A9584
:1010700061F73F912F911F91FF91EF91DF91CF91F8
:10108000BF91AF9108951027E80364000A000100A2
:10109000BEDF0090400709E0000E0092400708956F
:1010A0009DD001E00093440701E1009340070895BB
:1010B00000E100933F07ECE2F5E1F2DF089500E084
:1010C00000933F07E4EFF5E10E94EE0808950AE37C
:1010D0008BD000E289D0089503E486D003E484D065
:1010E00007E582D0089500E000933F0709E30093ED
:1010F0004007EEE6F5E172D0089500E000933F0767
:1011000009E300934007E8EBF5E168D0EAEDF5E18B
:1011100065D0089500E000933F0709E3009340077E
:10112000EF93FF93E8EBF5E159D0ECECF5E156D005
:10113000FF91EF91089500E000933F0709E30093CA
:101140004007EF93FF93E2EBF5E148D0FF91EF9179
:1011500008950AE500933F0709E300934007E8EE8E
:10116000F5E13CD0089502E700933F0709E30093BF
:101170004007EF93FF93E0EFF5E130D0FF91EF915F
:1011800008950EE400933F0709E300934007EF93AF
:10119000FF93EAE9F5E122D0FF91EF910895000F66
:1011A000E00F0027F01FA591B491FD0117D008951D
:1011B000CF93DF93C02F00270F93EF93FF93DD278B
:1011C000D0933F070E94CF0864DFFF91EF910F910A
:1011D00003950C178CF3DF91CF91089505910023AF
:1011E00011F002D0FBCF0895AF93BF93CF93EF934D
:1011F000FF931F932F933F93A0914407B6E0AB9FBB
:10120000E8E2F2E1E00DF11DA591B591159125916E
:101210003491FD0118D03F912F911F91FF91EF91D3
:10122000CF91BF91AF910895DE0C040604007E00BB
:1012300006080600BE02080C0C00BE020C101800C6
:10124000BE0B10102000A02FB02FAF71B076B034BD
:1012500019F4A05E0C942F09B03609F4A05CA39F8A
:10126000E00DF11DA12FC22F06D000913F07010F05
:1012700000933F070895AF93CF931F932F933F930E
:101280004F9311E03C2F0091400700933E072A2F17
:1012900000913F0700933D071A9511F418E045911E
:1012A000440F08F491D000913D07039500933D074A
:1012B0002A9591F700913E07039500933E073A95D2
:1012C00031F74F913F912F911F91CF91AF91089599
:1012D0002F923F924F925F926F927F928F921F93C5
:1012E0002F933F934F935F936F937F938F939F932E
:1012F000AF93BF93CF93DF93EF93FF9311E021E080
:1013000031E041E05091410700913F07501B1AF432
:1013100051951FEF2FEF6091420700914007601B2E
:101320001AF461953FEF4FEF561728F410E0052FA0
:10133000562F602F01C030E0752F760F252E3324F5
:1013400000913F0700933D070091400700933E073F
:10135000550F660F39D0772301F1FAF0261A0027CE
:10136000300A7AF400913D07020F00933D07009187
:101370003E07040F00933E07250E0027301E7250D3
:10138000E9CF00913D07010F00933D0700913E0713
:10139000030F00933E077150DDCFFF91EF91DF9176
:1013A000CF91BF91AF919F918F917F916F915F91FD
:1013B0004F913F912F911F918F907F906F905F90F1
:1013C0004F903F902F900895EF93FF93AF93BF936B
:1013D000E0E0F1E0A0913E07B0E0A873AA0FAA0FE9
:1013E000AA0FBB1FAA0FBB1FEA0FFB1F00913D07EF
:1013F0000F77E00F0027F01FA0913E07A770A3957D
:10140000B0E00894BB1FAA95E9F7A08100914307BB
:10141000002339F0023011F0AB2B04C0B095AB23A0
:1014200001C0AB27A083BF91AF91FF91EF910895C9
:10143000AF93BF93CF93DF93EF93FF93E4E8F4E18F
:10144000C591CF3F11F050D0FBCFC1E84DD0C09136
:10145000A1074AD0A0EBE0E0F1E0CA2F45D0C0E1FF
:1014600043D0C0E041D0B0E8C19140D0BA95E1F797
:10147000A395A83B91F7FF91EF91DF91CF91BF9199
:10148000AF910895AF40A0A6A4A2EEC82F24AC004F
:10149000F800E3FFAF93BF93EF93FF93E0E0F1E039
:1014A000A0E0B4E000E001931197E9F7FF91EF911C
:1014B000BF91AF910895EEDF01E00093430701E093
:1014C0000093440700E000933F0701E000934007CA
:1014D0000895E0DF01E00093430703E00093440731
:1014E00000E00093400708955F9801C05F9A5D98FF
:1014F00015D0BF93B8E0CC0F18F00000599803C086
:10150000599A000000000AD05C9808D05C9A06D076
:10151000BA9589F75D9A02D0BF91089504E00A95C3
:10152000F1F70895434F4E4649524D005741524EF0
:10153000494E472100004552524F520053415645F3
:1015400044004241434B20524154452053415645AB
:10155000204348414E4745004241434B20524154AD
:1015600045204E455854204348414E47450042418E
:10157000434B202055502020444F574E2020454EAD
:101580005445520043414E43454C2020202020200A
:1015900020202020202059455300434F4E54494ECF
:1015A00055450000434C4541520059455320204EBB
:1015B0004F004241434B00004241434B20505245B3
:1015C00056004241434B204D4F524500204E455856
:1015D00054204348414E47450000204E4558542072
:1015E00053454C45435400004348414E4745000095
:1015F0004F4B0000466C79207361666521202020E6
:101600002020202052433931310041726520796F0A
:101610007520737572653F004F6666004F6E00005F
:101620004E6F0000596573004163726F0000416C9A
:1016300061726D004E6F726D616C20534C00534CA3
:10164000204D69780000414343205472696D0000C9
:10165000534C204761696E00534C000047696D622E
:10166000616C000041696C2B456C650041696C65DB
:10167000726F6E00456C657661746F720000527512
:101680006464657200005468726F74746C65000065
:10169000417578004F66667365740000502047619D
:1016A000696E000050204C696D69740049204761E3
:1016B000696E000049204C696D6974004C6F636B62
:1016C00065640000486F6D650000506F7320310045
:1016D000506F73203200506F73203300506F7320AF
:1016E0003400506F732035004C4F57004D4544492E
:1016F000554D00004849474800005353202B300007
:101700005353202B323000005353202B3330000032
:101710005353202B353000002016241618166C1653
:1017200074167E16501646165C160000E816EC1667
:10173000F416CA16D016D616DC16E21628163E1671
:1017400034162E16FA16001708171017BC1618169E
:10175000C4166C16741686167E169016A4E6B0E0B3
:101760000E94C0060E947F0601E0009344070E9489
:10177000B5070E94180A0E944A0A0E94180A00E04F
:1017800000933F0700E000934007E0EBF7E10E9481
:10179000EE0804E100933F070CE00093400703E0EC
:1017A000E4EEF7E10E94D8080E94180A0C94D60BC8
:1017B00048454C4C4F00414343205472696D2052C0
:1017C0006F6C6C00414343205472696D2050697402
:1017D00063680000534C204D6978696E6720526140
:0A17E00074650000B617C417D41793
:00000001FF
